{
  "contractName": "Althea",
  "abi": [
    {
      "constant": true,
      "inputs": [],
      "name": "hasInitialized",
      "outputs": [
        {
          "name": "",
          "type": "bool"
        }
      ],
      "payable": false,
      "stateMutability": "view",
      "type": "function"
    },
    {
      "constant": true,
      "inputs": [],
      "name": "MANAGER",
      "outputs": [
        {
          "name": "",
          "type": "bytes32"
        }
      ],
      "payable": false,
      "stateMutability": "view",
      "type": "function"
    },
    {
      "constant": true,
      "inputs": [
        {
          "name": "_script",
          "type": "bytes"
        }
      ],
      "name": "getEVMScriptExecutor",
      "outputs": [
        {
          "name": "",
          "type": "address"
        }
      ],
      "payable": false,
      "stateMutability": "view",
      "type": "function"
    },
    {
      "constant": true,
      "inputs": [],
      "name": "getRecoveryVault",
      "outputs": [
        {
          "name": "",
          "type": "address"
        }
      ],
      "payable": false,
      "stateMutability": "view",
      "type": "function"
    },
    {
      "constant": true,
      "inputs": [],
      "name": "perBlockFee",
      "outputs": [
        {
          "name": "",
          "type": "uint256"
        }
      ],
      "payable": false,
      "stateMutability": "view",
      "type": "function"
    },
    {
      "constant": true,
      "inputs": [],
      "name": "ADD",
      "outputs": [
        {
          "name": "",
          "type": "bytes32"
        }
      ],
      "payable": false,
      "stateMutability": "view",
      "type": "function"
    },
    {
      "constant": true,
      "inputs": [
        {
          "name": "",
          "type": "address"
        }
      ],
      "name": "billMapping",
      "outputs": [
        {
          "name": "balance",
          "type": "uint256"
        },
        {
          "name": "perBlock",
          "type": "uint256"
        },
        {
          "name": "lastUpdated",
          "type": "uint256"
        }
      ],
      "payable": false,
      "stateMutability": "view",
      "type": "function"
    },
    {
      "constant": true,
      "inputs": [
        {
          "name": "token",
          "type": "address"
        }
      ],
      "name": "allowRecoverability",
      "outputs": [
        {
          "name": "",
          "type": "bool"
        }
      ],
      "payable": false,
      "stateMutability": "view",
      "type": "function"
    },
    {
      "constant": true,
      "inputs": [],
      "name": "appId",
      "outputs": [
        {
          "name": "",
          "type": "bytes32"
        }
      ],
      "payable": false,
      "stateMutability": "view",
      "type": "function"
    },
    {
      "constant": true,
      "inputs": [],
      "name": "getInitializationBlock",
      "outputs": [
        {
          "name": "",
          "type": "uint256"
        }
      ],
      "payable": false,
      "stateMutability": "view",
      "type": "function"
    },
    {
      "constant": true,
      "inputs": [],
      "name": "DELETE",
      "outputs": [
        {
          "name": "",
          "type": "bytes32"
        }
      ],
      "payable": false,
      "stateMutability": "view",
      "type": "function"
    },
    {
      "constant": false,
      "inputs": [
        {
          "name": "_token",
          "type": "address"
        }
      ],
      "name": "transferToVault",
      "outputs": [],
      "payable": false,
      "stateMutability": "nonpayable",
      "type": "function"
    },
    {
      "constant": true,
      "inputs": [
        {
          "name": "_sender",
          "type": "address"
        },
        {
          "name": "_role",
          "type": "bytes32"
        },
        {
          "name": "_params",
          "type": "uint256[]"
        }
      ],
      "name": "canPerform",
      "outputs": [
        {
          "name": "",
          "type": "bool"
        }
      ],
      "payable": false,
      "stateMutability": "view",
      "type": "function"
    },
    {
      "constant": true,
      "inputs": [
        {
          "name": "",
          "type": "bytes16"
        }
      ],
      "name": "userMapping",
      "outputs": [
        {
          "name": "ethAddr",
          "type": "address"
        },
        {
          "name": "nick",
          "type": "bytes16"
        }
      ],
      "payable": false,
      "stateMutability": "view",
      "type": "function"
    },
    {
      "constant": true,
      "inputs": [],
      "name": "getEVMScriptRegistry",
      "outputs": [
        {
          "name": "",
          "type": "address"
        }
      ],
      "payable": false,
      "stateMutability": "view",
      "type": "function"
    },
    {
      "constant": true,
      "inputs": [
        {
          "name": "",
          "type": "uint256"
        }
      ],
      "name": "subnetSubscribers",
      "outputs": [
        {
          "name": "",
          "type": "bytes16"
        }
      ],
      "payable": false,
      "stateMutability": "view",
      "type": "function"
    },
    {
      "constant": true,
      "inputs": [],
      "name": "kernel",
      "outputs": [
        {
          "name": "",
          "type": "address"
        }
      ],
      "payable": false,
      "stateMutability": "view",
      "type": "function"
    },
    {
      "constant": true,
      "inputs": [],
      "name": "isPetrified",
      "outputs": [
        {
          "name": "",
          "type": "bool"
        }
      ],
      "payable": false,
      "stateMutability": "view",
      "type": "function"
    },
    {
      "constant": true,
      "inputs": [],
      "name": "vault",
      "outputs": [
        {
          "name": "",
          "type": "address"
        }
      ],
      "payable": false,
      "stateMutability": "view",
      "type": "function"
    },
    {
      "payable": true,
      "stateMutability": "payable",
      "type": "fallback"
    },
    {
      "anonymous": false,
      "inputs": [
        {
          "indexed": true,
          "name": "ethAddress",
          "type": "address"
        },
        {
          "indexed": false,
          "name": "ipAddress",
          "type": "bytes16"
        },
        {
          "indexed": false,
          "name": "nickname",
          "type": "bytes16"
        }
      ],
      "name": "NewMember",
      "type": "event"
    },
    {
      "anonymous": false,
      "inputs": [
        {
          "indexed": true,
          "name": "ethAddress",
          "type": "address"
        },
        {
          "indexed": false,
          "name": "ipAddress",
          "type": "bytes16"
        },
        {
          "indexed": false,
          "name": "nickname",
          "type": "bytes16"
        }
      ],
      "name": "MemberRemoved",
      "type": "event"
    },
    {
      "anonymous": false,
      "inputs": [
        {
          "indexed": false,
          "name": "payer",
          "type": "address"
        },
        {
          "indexed": false,
          "name": "collector",
          "type": "address"
        }
      ],
      "name": "NewBill",
      "type": "event"
    },
    {
      "anonymous": false,
      "inputs": [
        {
          "indexed": false,
          "name": "payer",
          "type": "address"
        }
      ],
      "name": "BillUpdated",
      "type": "event"
    },
    {
      "anonymous": false,
      "inputs": [
        {
          "indexed": true,
          "name": "executor",
          "type": "address"
        },
        {
          "indexed": false,
          "name": "script",
          "type": "bytes"
        },
        {
          "indexed": false,
          "name": "input",
          "type": "bytes"
        },
        {
          "indexed": false,
          "name": "returnData",
          "type": "bytes"
        }
      ],
      "name": "ScriptResult",
      "type": "event"
    },
    {
      "constant": false,
      "inputs": [
        {
          "name": "_vault",
          "type": "address"
        }
      ],
      "name": "initialize",
      "outputs": [],
      "payable": false,
      "stateMutability": "nonpayable",
      "type": "function"
    },
    {
      "constant": false,
      "inputs": [
        {
          "name": "_ethAddr",
          "type": "address"
        },
        {
          "name": "_ip",
          "type": "bytes16"
        },
        {
          "name": "_nick",
          "type": "bytes16"
        }
      ],
      "name": "addMember",
      "outputs": [],
      "payable": false,
      "stateMutability": "nonpayable",
      "type": "function"
    },
    {
      "constant": false,
      "inputs": [
        {
          "name": "_ip",
          "type": "bytes16"
        }
      ],
      "name": "deleteMember",
      "outputs": [],
      "payable": false,
      "stateMutability": "nonpayable",
      "type": "function"
    },
    {
      "constant": true,
      "inputs": [
        {
          "name": "_ip",
          "type": "bytes16"
        }
      ],
      "name": "getMember",
      "outputs": [
        {
          "name": "addr",
          "type": "address"
        }
      ],
      "payable": false,
      "stateMutability": "view",
      "type": "function"
    },
    {
      "constant": false,
      "inputs": [
        {
          "name": "_newFee",
          "type": "uint256"
        }
      ],
      "name": "setPerBlockFee",
      "outputs": [],
      "payable": false,
      "stateMutability": "nonpayable",
      "type": "function"
    },
    {
      "constant": true,
      "inputs": [],
      "name": "getCountOfSubscribers",
      "outputs": [
        {
          "name": "",
          "type": "uint256"
        }
      ],
      "payable": false,
      "stateMutability": "view",
      "type": "function"
    },
    {
      "constant": false,
      "inputs": [],
      "name": "addBill",
      "outputs": [],
      "payable": true,
      "stateMutability": "payable",
      "type": "function"
    },
    {
      "constant": false,
      "inputs": [],
      "name": "collectBills",
      "outputs": [],
      "payable": false,
      "stateMutability": "nonpayable",
      "type": "function"
    },
    {
      "constant": false,
      "inputs": [],
      "name": "payMyBills",
      "outputs": [],
      "payable": false,
      "stateMutability": "nonpayable",
      "type": "function"
    },
    {
      "constant": false,
      "inputs": [],
      "name": "withdrawFromBill",
      "outputs": [],
      "payable": false,
      "stateMutability": "nonpayable",
      "type": "function"
    }
  ],
  "bytecode": "0x60806040526200001d62000023640100000000026401000000009004565b62000309565b60006200003e6200015e640100000000026401000000009004565b146040805190810160405280601881526020017f494e49545f414c52454144595f494e495449414c495a4544000000000000000081525090151562000121576040517f08c379a00000000000000000000000000000000000000000000000000000000081526004018080602001828103825283818151815260200191508051906020019080838360005b83811015620000e5578082015181840152602081019050620000c8565b50505050905090810190601f168015620001135780820380516001836020036101000a031916815260200191505b509250505060405180910390fd5b506200015c7fffffffffffffffffffffffffffffffffffffffffffffffffffffffffffffffff620001ab640100000000026401000000009004565b565b6000620001a67febb05b386a8d34882b8711d156f463690983dc47815980fb82aeeff1aa43579e60010260001916620002f76401000000000262002d55176401000000009004565b905090565b6000620001c66200015e640100000000026401000000009004565b146040805190810160405280601881526020017f494e49545f414c52454144595f494e495449414c495a45440000000000000000815250901515620002a9576040517f08c379a00000000000000000000000000000000000000000000000000000000081526004018080602001828103825283818151815260200191508051906020019080838360005b838110156200026d57808201518184015260208101905062000250565b50505050905090810190601f1680156200029b5780820380516001836020036101000a031916815260200191505b509250505060405180910390fd5b50620002f4817febb05b386a8d34882b8711d156f463690983dc47815980fb82aeeff1aa43579e600102600019166200030264010000000002620030f1179091906401000000009004565b50565b600081549050919050565b8082555050565b6131a580620003196000396000f300608060405260043610610175576000357c0100000000000000000000000000000000000000000000000000000000900463ffffffff1680630803fac0146102665780631b2df850146102955780632914b9bd146102c857806332f0a3b514610371578063376679b0146103c85780633b8bd0131461044857806350e3471714610473578063562f9e471461049e5780636bcbf58a146104d15780637e7db6e1146105365780637f0dc2381461059157806380afdea8146105a8578063841ee3f0146105db5780638b3dd749146106585780639bc18749146106835780639d4941d8146106b6578063a1658fad146106f9578063a41557c6146107a5578063a479e50814610852578063a4db47ef146108a9578063ad8073e3146108b3578063bc852c401461091a578063c4d66de814610931578063d4aae0c414610974578063db8c13e3146109cb578063de4796ed14610a0b578063ef5001fe14610a3a578063fbeff13714610a51578063fbfa77cf14610a7e575b61017d610ad5565b6040805190810160405280601481526020017f494e49545f4e4f545f494e495449414c495a454400000000000000000000000081525090151561025b576040517f08c379a00000000000000000000000000000000000000000000000000000000081526004018080602001828103825283818151815260200191508051906020019080838360005b83811015610220578082015181840152602081019050610205565b50505050905090810190601f16801561024d5780820380516001836020036101000a031916815260200191505b509250505060405180910390fd5b50610264610b00565b005b34801561027257600080fd5b5061027b610ad5565b604051808215151515815260200191505060405180910390f35b3480156102a157600080fd5b506102aa610e01565b60405180826000191660001916815260200191505060405180910390f35b3480156102d457600080fd5b5061032f600480360381019080803590602001908201803590602001908080601f0160208091040260200160405190810160405280939291908181526020018383808284378201915050505050509192919290505050610e3a565b604051808273ffffffffffffffffffffffffffffffffffffffff1673ffffffffffffffffffffffffffffffffffffffff16815260200191505060405180910390f35b34801561037d57600080fd5b50610386610f59565b604051808273ffffffffffffffffffffffffffffffffffffffff1673ffffffffffffffffffffffffffffffffffffffff16815260200191505060405180910390f35b3480156103d457600080fd5b5061040660048036038101908080356fffffffffffffffffffffffffffffffff19169060200190929190505050611006565b604051808273ffffffffffffffffffffffffffffffffffffffff1673ffffffffffffffffffffffffffffffffffffffff16815260200191505060405180910390f35b34801561045457600080fd5b5061045d61106c565b6040518082815260200191505060405180910390f35b34801561047f57600080fd5b50610488611079565b6040518082815260200191505060405180910390f35b3480156104aa57600080fd5b506104b361107f565b60405180826000191660001916815260200191505060405180910390f35b3480156104dd57600080fd5b50610512600480360381019080803573ffffffffffffffffffffffffffffffffffffffff1690602001909291905050506110b8565b60405180848152602001838152602001828152602001935050505060405180910390f35b34801561054257600080fd5b50610577600480360381019080803573ffffffffffffffffffffffffffffffffffffffff1690602001909291905050506110e2565b604051808215151515815260200191505060405180910390f35b34801561059d57600080fd5b506105a66110ed565b005b3480156105b457600080fd5b506105bd6111dc565b60405180826000191660001916815260200191505060405180910390f35b3480156105e757600080fd5b50610656600480360381019080803573ffffffffffffffffffffffffffffffffffffffff16906020019092919080356fffffffffffffffffffffffffffffffff1916906020019092919080356fffffffffffffffffffffffffffffffff19169060200190929190505050611213565b005b34801561066457600080fd5b5061066d611678565b6040518082815260200191505060405180910390f35b34801561068f57600080fd5b506106986116af565b60405180826000191660001916815260200191505060405180910390f35b3480156106c257600080fd5b506106f7600480360381019080803573ffffffffffffffffffffffffffffffffffffffff1690602001909291905050506116e8565b005b34801561070557600080fd5b5061078b600480360381019080803573ffffffffffffffffffffffffffffffffffffffff169060200190929190803560001916906020019092919080359060200190820180359060200190808060200260200160405190810160405280939291908181526020018383602002808284378201915050505050509192919290505050611b1a565b604051808215151515815260200191505060405180910390f35b3480156107b157600080fd5b506107e360048036038101908080356fffffffffffffffffffffffffffffffff19169060200190929190505050611d21565b604051808373ffffffffffffffffffffffffffffffffffffffff1673ffffffffffffffffffffffffffffffffffffffff168152602001826fffffffffffffffffffffffffffffffff19166fffffffffffffffffffffffffffffffff191681526020019250505060405180910390f35b34801561085e57600080fd5b50610867611d82565b604051808273ffffffffffffffffffffffffffffffffffffffff1673ffffffffffffffffffffffffffffffffffffffff16815260200191505060405180910390f35b6108b1610b00565b005b3480156108bf57600080fd5b506108de60048036038101908080359060200190929190505050611e9d565b60405180826fffffffffffffffffffffffffffffffff19166fffffffffffffffffffffffffffffffff1916815260200191505060405180910390f35b34801561092657600080fd5b5061092f611ee3565b005b34801561093d57600080fd5b50610972600480360381019080803573ffffffffffffffffffffffffffffffffffffffff1690602001909291905050506120a6565b005b34801561098057600080fd5b506109896121e5565b604051808273ffffffffffffffffffffffffffffffffffffffff1673ffffffffffffffffffffffffffffffffffffffff16815260200191505060405180910390f35b3480156109d757600080fd5b50610a0960048036038101908080356fffffffffffffffffffffffffffffffff1916906020019092919050505061221c565b005b348015610a1757600080fd5b50610a2061269b565b604051808215151515815260200191505060405180910390f35b348015610a4657600080fd5b50610a4f6126cc565b005b348015610a5d57600080fd5b50610a7c600480360381019080803590602001909291905050506128ae565b005b348015610a8a57600080fd5b50610a93612a09565b604051808273ffffffffffffffffffffffffffffffffffffffff1673ffffffffffffffffffffffffffffffffffffffff16815260200191505060405180910390f35b600080610ae0611678565b905060008114158015610afa575080610af7612a2f565b10155b91505090565b60005434111515610b79576040517f08c379a00000000000000000000000000000000000000000000000000000000081526004018080602001828103825260188152602001807f4d6573736167652076616c7565206e6f7420656e6f756768000000000000000081525060200191505060405180910390fd5b6000600460003373ffffffffffffffffffffffffffffffffffffffff1673ffffffffffffffffffffffffffffffffffffffff168152602001908152602001600020600201541415610d0057606060405190810160405280348152602001600054815260200143815250600460003373ffffffffffffffffffffffffffffffffffffffff1673ffffffffffffffffffffffffffffffffffffffff1681526020019081526020016000206000820151816000015560208201518160010155604082015181600201559050507fed553a58c1e3ebde0827bcbf800a42dd39790c2b44ac7e0cda649b027cebd5f933600160009054906101000a900473ffffffffffffffffffffffffffffffffffffffff16604051808373ffffffffffffffffffffffffffffffffffffffff1673ffffffffffffffffffffffffffffffffffffffff1681526020018273ffffffffffffffffffffffffffffffffffffffff1673ffffffffffffffffffffffffffffffffffffffff1681526020019250505060405180910390a1610dff565b610d5534600460003373ffffffffffffffffffffffffffffffffffffffff1673ffffffffffffffffffffffffffffffffffffffff16815260200190815260200160002060000154612a3790919063ffffffff16565b600460003373ffffffffffffffffffffffffffffffffffffffff1673ffffffffffffffffffffffffffffffffffffffff168152602001908152602001600020600001819055507f7d89b3c7d3be1f4bff77e84ddba0d3f104bf9ea3086a1e71fd7d0a84e4a0eaf433604051808273ffffffffffffffffffffffffffffffffffffffff1673ffffffffffffffffffffffffffffffffffffffff16815260200191505060405180910390a15b565b60405180807f4d414e41474552000000000000000000000000000000000000000000000000008152506007019050604051809103902081565b6000610e44611d82565b73ffffffffffffffffffffffffffffffffffffffff166304bf2a7f836040518263ffffffff167c01000000000000000000000000000000000000000000000000000000000281526004018080602001828103825283818151815260200191508051906020019080838360005b83811015610ecb578082015181840152602081019050610eb0565b50505050905090810190601f168015610ef85780820380516001836020036101000a031916815260200191505b5092505050602060405180830381600087803b158015610f1757600080fd5b505af1158015610f2b573d6000803e3d6000fd5b505050506040513d6020811015610f4157600080fd5b81019080805190602001909291905050509050919050565b6000610f636121e5565b73ffffffffffffffffffffffffffffffffffffffff166332f0a3b56040518163ffffffff167c0100000000000000000000000000000000000000000000000000000000028152600401602060405180830381600087803b158015610fc657600080fd5b505af1158015610fda573d6000803e3d6000fd5b505050506040513d6020811015610ff057600080fd5b8101908080519060200190929190505050905090565b600060036000836fffffffffffffffffffffffffffffffff19166fffffffffffffffffffffffffffffffff1916815260200190815260200160002060000160009054906101000a900473ffffffffffffffffffffffffffffffffffffffff169050919050565b6000600280549050905090565b60005481565b60405180807f41444400000000000000000000000000000000000000000000000000000000008152506003019050604051809103902081565b60046020528060005260406000206000915090508060000154908060010154908060020154905083565b600060019050919050565b60006110f833612b2c565b9050600160009054906101000a900473ffffffffffffffffffffffffffffffffffffffff1673ffffffffffffffffffffffffffffffffffffffff166347e7ef24826000846040518463ffffffff167c0100000000000000000000000000000000000000000000000000000000028152600401808373ffffffffffffffffffffffffffffffffffffffff1673ffffffffffffffffffffffffffffffffffffffff168152602001828152602001925050506000604051808303818588803b1580156111c057600080fd5b505af11580156111d4573d6000803e3d6000fd5b505050505050565b600061120e7fd625496217aa6a3453eecb9c3489dc5a53e6c67b444329ea2b2cbc9ff547639b60010260001916612d4a565b905090565b60405180807f4144440000000000000000000000000000000000000000000000000000000000815250600301905060405180910390206112843382600060405190808252806020026020018201604052801561127e5781602001602082028038833980820191505090505b50611b1a565b6040805190810160405280600f81526020017f4150505f415554485f4641494c45440000000000000000000000000000000000815250901515611362576040517f08c379a00000000000000000000000000000000000000000000000000000000081526004018080602001828103825283818151815260200191508051906020019080838360005b8381101561132757808201518184015260208101905061130c565b50505050905090810190601f1680156113545780820380516001836020036101000a031916815260200191505b509250505060405180910390fd5b50600073ffffffffffffffffffffffffffffffffffffffff1660036000856fffffffffffffffffffffffffffffffff19166fffffffffffffffffffffffffffffffff1916815260200190815260200160002060000160009054906101000a900473ffffffffffffffffffffffffffffffffffffffff1673ffffffffffffffffffffffffffffffffffffffff16141515611463576040517f08c379a00000000000000000000000000000000000000000000000000000000081526004018080602001828103825260158152602001807f4d656d62657220616c726561647920657869737473000000000000000000000081525060200191505060405180910390fd5b60408051908101604052808573ffffffffffffffffffffffffffffffffffffffff168152602001836fffffffffffffffffffffffffffffffff191681525060036000856fffffffffffffffffffffffffffffffff19166fffffffffffffffffffffffffffffffff1916815260200190815260200160002060008201518160000160006101000a81548173ffffffffffffffffffffffffffffffffffffffff021916908373ffffffffffffffffffffffffffffffffffffffff16021790555060208201518160010160006101000a8154816fffffffffffffffffffffffffffffffff021916908370010000000000000000000000000000000090040217905550905050600283908060018154018082558091505090600182039060005260206000209060029182820401919006601002909192909190916101000a8154816fffffffffffffffffffffffffffffffff021916908370010000000000000000000000000000000090040217905550508373ffffffffffffffffffffffffffffffffffffffff167fe57f5784e78b1736f101d6f3bc8c6872a5f459f075ec7d57f43eff44b5dcfd38848460405180836fffffffffffffffffffffffffffffffff19166fffffffffffffffffffffffffffffffff19168152602001826fffffffffffffffffffffffffffffffff19166fffffffffffffffffffffffffffffffff191681526020019250505060405180910390a250505050565b60006116aa7febb05b386a8d34882b8711d156f463690983dc47815980fb82aeeff1aa43579e60010260001916612d55565b905090565b60405180807f44454c45544500000000000000000000000000000000000000000000000000008152506006019050604051809103902081565b6000806116f4836110e2565b6040805190810160405280601281526020017f5245434f5645525f444953414c4c4f57454400000000000000000000000000008152509015156117d2576040517f08c379a00000000000000000000000000000000000000000000000000000000081526004018080602001828103825283818151815260200191508051906020019080838360005b8381101561179757808201518184015260208101905061177c565b50505050905090810190601f1680156117c45780820380516001836020036101000a031916815260200191505b509250505060405180910390fd5b506117db610f59565b91506117e682612d60565b6040805190810160405280601a81526020017f5245434f5645525f5641554c545f4e4f545f434f4e54524143540000000000008152509015156118c4576040517f08c379a00000000000000000000000000000000000000000000000000000000081526004018080602001828103825283818151815260200191508051906020019080838360005b8381101561188957808201518184015260208101905061186e565b50505050905090810190601f1680156118b65780820380516001836020036101000a031916815260200191505b509250505060405180910390fd5b50600073ffffffffffffffffffffffffffffffffffffffff168373ffffffffffffffffffffffffffffffffffffffff16141561195d578173ffffffffffffffffffffffffffffffffffffffff166108fc3073ffffffffffffffffffffffffffffffffffffffff16319081150290604051600060405180830381858888f19350505050158015611957573d6000803e3d6000fd5b50611b15565b8273ffffffffffffffffffffffffffffffffffffffff166370a08231306040518263ffffffff167c0100000000000000000000000000000000000000000000000000000000028152600401808273ffffffffffffffffffffffffffffffffffffffff1673ffffffffffffffffffffffffffffffffffffffff168152602001915050602060405180830381600087803b1580156119f857600080fd5b505af1158015611a0c573d6000803e3d6000fd5b505050506040513d6020811015611a2257600080fd5b810190808051906020019092919050505090508273ffffffffffffffffffffffffffffffffffffffff1663a9059cbb83836040518363ffffffff167c0100000000000000000000000000000000000000000000000000000000028152600401808373ffffffffffffffffffffffffffffffffffffffff1673ffffffffffffffffffffffffffffffffffffffff16815260200182815260200192505050602060405180830381600087803b158015611ad857600080fd5b505af1158015611aec573d6000803e3d6000fd5b505050506040513d6020811015611b0257600080fd5b8101908080519060200190929190505050505b505050565b60008060606000611b29610ad5565b1515611b385760009350611d17565b611b406121e5565b9250600073ffffffffffffffffffffffffffffffffffffffff168373ffffffffffffffffffffffffffffffffffffffff161415611b805760009350611d17565b602085510290508491508082528273ffffffffffffffffffffffffffffffffffffffff1663fdef9106883089866040518563ffffffff167c0100000000000000000000000000000000000000000000000000000000028152600401808573ffffffffffffffffffffffffffffffffffffffff1673ffffffffffffffffffffffffffffffffffffffff1681526020018473ffffffffffffffffffffffffffffffffffffffff1673ffffffffffffffffffffffffffffffffffffffff168152602001836000191660001916815260200180602001828103825283818151815260200191508051906020019080838360005b83811015611c8a578082015181840152602081019050611c6f565b50505050905090810190601f168015611cb75780820380516001836020036101000a031916815260200191505b5095505050505050602060405180830381600087803b158015611cd957600080fd5b505af1158015611ced573d6000803e3d6000fd5b505050506040513d6020811015611d0357600080fd5b810190808051906020019092919050505093505b5050509392505050565b60036020528060005260406000206000915090508060000160009054906101000a900473ffffffffffffffffffffffffffffffffffffffff16908060010160009054906101000a900470010000000000000000000000000000000002905082565b600080611d8d6121e5565b73ffffffffffffffffffffffffffffffffffffffff1663be00bbd87fd6f028ca0e8edb4a8c9757ca4fdccab25fa1e0317da1188108f7d2dee14902fb6001027fddbcfd564f642ab5627cf68b9b7d374fb4f8a36e941a75d89c87998cef03bd616001026040518363ffffffff167c0100000000000000000000000000000000000000000000000000000000028152600401808360001916600019168152602001826000191660001916815260200192505050602060405180830381600087803b158015611e5957600080fd5b505af1158015611e6d573d6000803e3d6000fd5b505050506040513d6020811015611e8357600080fd5b810190808051906020019092919050505090508091505090565b600281815481101515611eac57fe5b9060005260206000209060029182820401919006601002915054906101000a90047001000000000000000000000000000000000281565b60008060009150600090505b600280549050811015611fc357611fb4611fa560036000600285815481101515611f1557fe5b90600052602060002090600291828204019190066010029054906101000a9004700100000000000000000000000000000000026fffffffffffffffffffffffffffffffff19166fffffffffffffffffffffffffffffffff1916815260200190815260200160002060000160009054906101000a900473ffffffffffffffffffffffffffffffffffffffff16612b2c565b83612a3790919063ffffffff16565b91508080600101915050611eef565b600160009054906101000a900473ffffffffffffffffffffffffffffffffffffffff1673ffffffffffffffffffffffffffffffffffffffff166347e7ef24836000856040518463ffffffff167c0100000000000000000000000000000000000000000000000000000000028152600401808373ffffffffffffffffffffffffffffffffffffffff1673ffffffffffffffffffffffffffffffffffffffff168152602001828152602001925050506000604051808303818588803b15801561208957600080fd5b505af115801561209d573d6000803e3d6000fd5b50505050505050565b60006120b0611678565b146040805190810160405280601881526020017f494e49545f414c52454144595f494e495449414c495a4544000000000000000081525090151561218f576040517f08c379a00000000000000000000000000000000000000000000000000000000081526004018080602001828103825283818151815260200191508051906020019080838360005b83811015612154578082015181840152602081019050612139565b50505050905090810190601f1680156121815780820380516001836020036101000a031916815260200191505b509250505060405180910390fd5b5061271060008190555080600160006101000a81548173ffffffffffffffffffffffffffffffffffffffff021916908373ffffffffffffffffffffffffffffffffffffffff1602179055506121e2612db2565b50565b60006122177f4172f0f7d2289153072b0a6ca36959e0cbe2efc3afe50fc81636caa96338137b60010260001916612edf565b905090565b600060405180807f44454c45544500000000000000000000000000000000000000000000000000008152506006019050604051809103902061228f338260006040519080825280602002602001820160405280156122895781602001602082028038833980820191505090505b50611b1a565b6040805190810160405280600f81526020017f4150505f415554485f4641494c4544000000000000000000000000000000000081525090151561236d576040517f08c379a00000000000000000000000000000000000000000000000000000000081526004018080602001828103825283818151815260200191508051906020019080838360005b83811015612332578082015181840152602081019050612317565b50505050905090810190601f16801561235f5780820380516001836020036101000a031916815260200191505b509250505060405180910390fd5b5060036000846fffffffffffffffffffffffffffffffff19166fffffffffffffffffffffffffffffffff1916815260200190815260200160002060000160009054906101000a900473ffffffffffffffffffffffffffffffffffffffff1673ffffffffffffffffffffffffffffffffffffffff167f3fa707f0a1b643f48caf25a10ef749f570de0f6ad6645179168ba127eebb0dd78460036000876fffffffffffffffffffffffffffffffff19166fffffffffffffffffffffffffffffffff1916815260200190815260200160002060010160009054906101000a90047001000000000000000000000000000000000260405180836fffffffffffffffffffffffffffffffff19166fffffffffffffffffffffffffffffffff19168152602001826fffffffffffffffffffffffffffffffff19166fffffffffffffffffffffffffffffffff191681526020019250505060405180910390a260036000846fffffffffffffffffffffffffffffffff19166fffffffffffffffffffffffffffffffff19168152602001908152602001600020600080820160006101000a81549073ffffffffffffffffffffffffffffffffffffffff02191690556001820160006101000a8154906fffffffffffffffffffffffffffffffff02191690555050600091505b6002805490508210156126965760028281548110151561256c57fe5b90600052602060002090600291828204019190066010029054906101000a9004700100000000000000000000000000000000026fffffffffffffffffffffffffffffffff1916836fffffffffffffffffffffffffffffffff191614156126895760026001600280549050038154811015156125e357fe5b90600052602060002090600291828204019190066010029054906101000a90047001000000000000000000000000000000000260028381548110151561262557fe5b90600052602060002090600291828204019190066010026101000a8154816fffffffffffffffffffffffffffffffff021916908370010000000000000000000000000000000090040217905550600280548091906001900361268791906130f8565b505b8180600101925050612550565b505050565b60007fffffffffffffffffffffffffffffffffffffffffffffffffffffffffffffffff6126c6611678565b14905090565b60006126d66110ed565b600460003373ffffffffffffffffffffffffffffffffffffffff1673ffffffffffffffffffffffffffffffffffffffff1681526020019081526020016000206000015490506000811115156127b9576040517f08c379a000000000000000000000000000000000000000000000000000000000815260040180806020018281038252602f8152602001807f416d6f756e7420746f207061796f7574206973206e6f206d6f7265207468616e81526020017f207a65726f2c2061626f7274696e67000000000000000000000000000000000081525060400191505060405180910390fd5b6000600460003373ffffffffffffffffffffffffffffffffffffffff1673ffffffffffffffffffffffffffffffffffffffff168152602001908152602001600020600001819055503373ffffffffffffffffffffffffffffffffffffffff166108fc829081150290604051600060405180830381858888f19350505050158015612847573d6000803e3d6000fd5b507f7d89b3c7d3be1f4bff77e84ddba0d3f104bf9ea3086a1e71fd7d0a84e4a0eaf433604051808273ffffffffffffffffffffffffffffffffffffffff1673ffffffffffffffffffffffffffffffffffffffff16815260200191505060405180910390a150565b60405180807f4d414e41474552000000000000000000000000000000000000000000000000008152506007019050604051809103902061291f338260006040519080825280602002602001820160405280156129195781602001602082028038833980820191505090505b50611b1a565b6040805190810160405280600f81526020017f4150505f415554485f4641494c454400000000000000000000000000000000008152509015156129fd576040517f08c379a00000000000000000000000000000000000000000000000000000000081526004018080602001828103825283818151815260200191508051906020019080838360005b838110156129c25780820151818401526020810190506129a7565b50505050905090810190601f1680156129ef5780820380516001836020036101000a031916815260200191505b509250505060405180910390fd5b50816000819055505050565b600160009054906101000a900473ffffffffffffffffffffffffffffffffffffffff1681565b600043905090565b6000808284019050838110156040805190810160405280601181526020017f4d4154485f4144445f4f564552464c4f57000000000000000000000000000000815250901515612b21576040517f08c379a00000000000000000000000000000000000000000000000000000000081526004018080602001828103825283818151815260200191508051906020019080838360005b83811015612ae6578082015181840152602081019050612acb565b50505050905090810190601f168015612b135780820380516001836020036101000a031916815260200191505b509250505060405180910390fd5b508091505092915050565b600080612b37613132565b6000600460008673ffffffffffffffffffffffffffffffffffffffff1673ffffffffffffffffffffffffffffffffffffffff1681526020019081526020016000206060604051908101604052908160008201548152602001600182015481526020016002820154815250509150612bd18260200151612bc3846040015143612eea90919063ffffffff16565b612fdf90919063ffffffff16565b9050816000015181111515612c4557612bf7818360000151612eea90919063ffffffff16565b600460008773ffffffffffffffffffffffffffffffffffffffff1673ffffffffffffffffffffffffffffffffffffffff16815260200190815260200160002060000181905550809250612c95565b816000015192506000600460008773ffffffffffffffffffffffffffffffffffffffff1673ffffffffffffffffffffffffffffffffffffffff168152602001908152602001600020600001819055505b43600460008773ffffffffffffffffffffffffffffffffffffffff1673ffffffffffffffffffffffffffffffffffffffff168152602001908152602001600020600201819055507f7d89b3c7d3be1f4bff77e84ddba0d3f104bf9ea3086a1e71fd7d0a84e4a0eaf485604051808273ffffffffffffffffffffffffffffffffffffffff1673ffffffffffffffffffffffffffffffffffffffff16815260200191505060405180910390a1829350505050919050565b600081549050919050565b600081549050919050565b600080600073ffffffffffffffffffffffffffffffffffffffff168373ffffffffffffffffffffffffffffffffffffffff161415612da15760009150612dac565b823b90506000811191505b50919050565b6000612dbc611678565b146040805190810160405280601881526020017f494e49545f414c52454144595f494e495449414c495a45440000000000000000815250901515612e9b576040517f08c379a00000000000000000000000000000000000000000000000000000000081526004018080602001828103825283818151815260200191508051906020019080838360005b83811015612e60578082015181840152602081019050612e45565b50505050905090810190601f168015612e8d5780820380516001836020036101000a031916815260200191505b509250505060405180910390fd5b50612edd612ea7612a2f565b7febb05b386a8d34882b8711d156f463690983dc47815980fb82aeeff1aa43579e600102600019166130f190919063ffffffff16565b565b600081549050919050565b600080838311156040805190810160405280601281526020017f4d4154485f5355425f554e444552464c4f570000000000000000000000000000815250901515612fcf576040517f08c379a00000000000000000000000000000000000000000000000000000000081526004018080602001828103825283818151815260200191508051906020019080838360005b83811015612f94578082015181840152602081019050612f79565b50505050905090810190601f168015612fc15780820380516001836020036101000a031916815260200191505b509250505060405180910390fd5b5082840390508091505092915050565b6000806000841415612ff457600091506130ea565b828402905082848281151561300557fe5b04146040805190810160405280601181526020017f4d4154485f4d554c5f4f564552464c4f570000000000000000000000000000008152509015156130e5576040517f08c379a00000000000000000000000000000000000000000000000000000000081526004018080602001828103825283818151815260200191508051906020019080838360005b838110156130aa57808201518184015260208101905061308f565b50505050905090810190601f1680156130d75780820380516001836020036101000a031916815260200191505b509250505060405180910390fd5b508091505b5092915050565b8082555050565b81548183558181111561312d57600101600290048160010160029004836000526020600020918201910161312c9190613154565b5b505050565b6060604051908101604052806000815260200160008152602001600081525090565b61317691905b8082111561317257600081600090555060010161315a565b5090565b905600a165627a7a72305820bfe1ee389c0aea25ad4a4b15c03b82475cec4591a12d9c81f15640adef45e0f80029",
  "source": "pragma solidity ^0.4.24;\n\nimport \"@aragon/os/contracts/apps/AragonApp.sol\";\nimport \"@aragon/os/contracts/lib/math/SafeMath.sol\";\n\nimport \"@aragon/os/contracts/common/EtherTokenConstant.sol\";\nimport \"@aragon/apps-vault/contracts/Vault.sol\";\n\ncontract Althea is EtherTokenConstant, AragonApp {\n  using SafeMath for uint;\n\n  event NewMember(\n    address indexed ethAddress,\n    bytes16 ipAddress,\n    bytes16 nickname\n  );\n  event MemberRemoved(\n    address indexed ethAddress,\n    bytes16 ipAddress,\n    bytes16 nickname\n  );\n\n  event NewBill(address payer, address collector);\n  event BillUpdated(address payer);\n \n  bytes32 constant public MANAGER = keccak256(\"MANAGER\");\n  bytes32 constant public DELETE = keccak256(\"DELETE\");\n  bytes32 constant public ADD = keccak256(\"ADD\");\n\n  struct Bill {\n    uint balance;\n    uint perBlock;\n    uint lastUpdated;\n  }\n\n  struct User {\n    address ethAddr;\n    bytes16 nick;\n  }\n\n  uint public perBlockFee;\n  Vault public vault;\n  bytes16[] public subnetSubscribers;\n  mapping(bytes16 => User) public userMapping;\n  mapping(address => Bill) public billMapping;\n\n  function initialize(Vault _vault) external onlyInit {\n    perBlockFee = 10000;\n    vault = _vault;\n    initialized();\n  }\n\n  function addMember(address _ethAddr, bytes16 _ip, bytes16 _nick)\n    external \n    auth(ADD)\n  {\n    require(userMapping[_ip].ethAddr== address(0), \"Member already exists\");\n    userMapping[_ip] = User(_ethAddr, _nick);\n    subnetSubscribers.push(_ip);\n    NewMember(_ethAddr, _ip, _nick);\n  }\n\n  function deleteMember(bytes16 _ip) external auth(DELETE) {\n    MemberRemoved(userMapping[_ip].ethAddr, _ip, userMapping[_ip].nick);\n    delete userMapping[_ip];\n    for (uint i = 0; i < subnetSubscribers.length; i++) {\n      if (_ip == subnetSubscribers[i]) {\n        subnetSubscribers[i] = subnetSubscribers[subnetSubscribers.length-1];\n        subnetSubscribers.length--;\n      }\n    }\n  }\n\n  function getMember(bytes16 _ip) external view returns(address addr) {\n    addr = userMapping[_ip].ethAddr;\n  }\n\n  function setPerBlockFee(uint _newFee) external auth(MANAGER) {\n    perBlockFee = _newFee;\n  }\n\n  function getCountOfSubscribers() external view returns (uint) {\n    return subnetSubscribers.length;\n  }\n\n  function addBill() public payable {\n    require(msg.value > perBlockFee, \"Message value not enough\");\n\n    if (billMapping[msg.sender].lastUpdated == 0) {\n      billMapping[msg.sender] = Bill(msg.value, perBlockFee, block.number);\n      emit NewBill(msg.sender, vault);\n    } else {\n      billMapping[msg.sender].balance = billMapping[msg.sender].balance.add(msg.value);\n      emit BillUpdated(msg.sender);\n    }\n  }\n\n  function collectBills() external {\n    uint transferValue = 0;\n    for (uint i = 0; i < subnetSubscribers.length; i++) {\n      transferValue = transferValue.add(\n        processBills(userMapping[subnetSubscribers[i]].ethAddr)\n      );\n    }\n    vault.deposit.value(transferValue)(ETH, transferValue);\n  }\n\n  function payMyBills() public {\n    uint amount = processBills(msg.sender);\n    vault.deposit.value(amount)(ETH, amount);\n  }\n\n  function withdrawFromBill() external {\n    payMyBills();\n    uint amount = billMapping[msg.sender].balance;\n    require(amount > 0, \"Amount to payout is no more than zero, aborting\");\n    billMapping[msg.sender].balance = 0;\n    address(msg.sender).transfer(amount);\n    emit BillUpdated(msg.sender);\n  }\n\n  function processBills(address _subscriber) internal returns(uint) {\n    uint transferValue;\n    Bill memory bill = billMapping[_subscriber];\n    uint amountOwed = block.number.sub(bill.lastUpdated).mul(bill.perBlock);\n\n    if (amountOwed <= bill.balance) {\n      billMapping[_subscriber].balance= bill.balance.sub(amountOwed);\n      transferValue = amountOwed;\n    } else {\n      transferValue = bill.balance;\n      billMapping[_subscriber].balance = 0;\n    }\n    billMapping[_subscriber].lastUpdated = block.number;\n    emit BillUpdated(_subscriber);\n    return transferValue;\n  }\n\n  // leave a space between `function` and `(` or else the parser won't work\n  function () external payable isInitialized {\n    addBill();\n  }\n}\n",
  "sourcePath": "/home/sebas/githubs/althea/aragon-node-list/contracts/Althea.sol",
  "compiler": {
    "name": "solc",
    "version": "0.4.24+commit.e67f0147.Emscripten.clang"
  },
  "schemaVersion": "3.0.0-beta.0",
  "updatedAt": "2018-12-16T16:09:39.552Z"
}