{
  "contractName": "Althea",
  "abi": [
    {
      "constant": true,
      "inputs": [],
      "name": "perBlockFee",
      "outputs": [
        {
          "name": "",
          "type": "uint256"
        }
      ],
      "payable": false,
      "stateMutability": "view",
      "type": "function"
    },
    {
      "constant": true,
      "inputs": [],
      "name": "wallet",
      "outputs": [
        {
          "name": "",
          "type": "address"
        }
      ],
      "payable": false,
      "stateMutability": "view",
      "type": "function"
    },
    {
      "constant": true,
      "inputs": [
        {
          "name": "",
          "type": "address"
        }
      ],
      "name": "billMapping",
      "outputs": [
        {
          "name": "balance",
          "type": "uint256"
        },
        {
          "name": "perBlock",
          "type": "uint256"
        },
        {
          "name": "lastUpdated",
          "type": "uint256"
        }
      ],
      "payable": false,
      "stateMutability": "view",
      "type": "function"
    },
    {
      "constant": true,
      "inputs": [
        {
          "name": "",
          "type": "bytes16"
        }
      ],
      "name": "userMapping",
      "outputs": [
        {
          "name": "ethAddr",
          "type": "address"
        },
        {
          "name": "nick",
          "type": "bytes16"
        }
      ],
      "payable": false,
      "stateMutability": "view",
      "type": "function"
    },
    {
      "constant": true,
      "inputs": [
        {
          "name": "",
          "type": "uint256"
        }
      ],
      "name": "subnetSubscribers",
      "outputs": [
        {
          "name": "",
          "type": "bytes16"
        }
      ],
      "payable": false,
      "stateMutability": "view",
      "type": "function"
    },
    {
      "payable": true,
      "stateMutability": "payable",
      "type": "fallback"
    },
    {
      "anonymous": false,
      "inputs": [
        {
          "indexed": true,
          "name": "ethAddress",
          "type": "address"
        },
        {
          "indexed": false,
          "name": "ipAddress",
          "type": "bytes16"
        },
        {
          "indexed": false,
          "name": "nickname",
          "type": "bytes16"
        }
      ],
      "name": "NewMember",
      "type": "event"
    },
    {
      "anonymous": false,
      "inputs": [
        {
          "indexed": true,
          "name": "ethAddress",
          "type": "address"
        },
        {
          "indexed": false,
          "name": "ipAddress",
          "type": "bytes16"
        },
        {
          "indexed": false,
          "name": "nickname",
          "type": "bytes16"
        }
      ],
      "name": "MemberRemoved",
      "type": "event"
    },
    {
      "anonymous": false,
      "inputs": [
        {
          "indexed": false,
          "name": "payer",
          "type": "address"
        },
        {
          "indexed": false,
          "name": "collector",
          "type": "address"
        }
      ],
      "name": "NewBill",
      "type": "event"
    },
    {
      "anonymous": false,
      "inputs": [
        {
          "indexed": false,
          "name": "payer",
          "type": "address"
        }
      ],
      "name": "BillUpdated",
      "type": "event"
    },
    {
      "constant": false,
      "inputs": [
        {
          "name": "_wallet",
          "type": "address"
        }
      ],
      "name": "initialize",
      "outputs": [],
      "payable": false,
      "stateMutability": "nonpayable",
      "type": "function"
    },
    {
      "constant": true,
      "inputs": [
        {
          "name": "_ip",
          "type": "bytes16"
        }
      ],
      "name": "getMember",
      "outputs": [
        {
          "name": "addr",
          "type": "address"
        }
      ],
      "payable": false,
      "stateMutability": "view",
      "type": "function"
    },
    {
      "constant": false,
      "inputs": [
        {
          "name": "_newFee",
          "type": "uint256"
        }
      ],
      "name": "setPerBlockFee",
      "outputs": [],
      "payable": false,
      "stateMutability": "nonpayable",
      "type": "function"
    },
    {
      "constant": true,
      "inputs": [],
      "name": "getCountOfSubscribers",
      "outputs": [
        {
          "name": "",
          "type": "uint256"
        }
      ],
      "payable": false,
      "stateMutability": "view",
      "type": "function"
    },
    {
      "constant": false,
      "inputs": [
        {
          "name": "_subscriber",
          "type": "address"
        }
      ],
      "name": "addBill",
      "outputs": [],
      "payable": true,
      "stateMutability": "payable",
      "type": "function"
    },
    {
      "constant": false,
      "inputs": [],
      "name": "addBill",
      "outputs": [],
      "payable": true,
      "stateMutability": "payable",
      "type": "function"
    },
    {
      "constant": false,
      "inputs": [
        {
          "name": "_ethAddr",
          "type": "address"
        },
        {
          "name": "_ip",
          "type": "bytes16"
        },
        {
          "name": "_nick",
          "type": "bytes16"
        }
      ],
      "name": "addMember",
      "outputs": [],
      "payable": false,
      "stateMutability": "nonpayable",
      "type": "function"
    },
    {
      "constant": false,
      "inputs": [],
      "name": "collectBills",
      "outputs": [],
      "payable": false,
      "stateMutability": "nonpayable",
      "type": "function"
    },
    {
      "constant": false,
      "inputs": [],
      "name": "payMyBills",
      "outputs": [],
      "payable": false,
      "stateMutability": "nonpayable",
      "type": "function"
    },
    {
      "constant": false,
      "inputs": [
        {
          "name": "_ip",
          "type": "bytes16"
        }
      ],
      "name": "deleteMember",
      "outputs": [],
      "payable": false,
      "stateMutability": "nonpayable",
      "type": "function"
    },
    {
      "constant": false,
      "inputs": [],
      "name": "withdrawFromBill",
      "outputs": [],
      "payable": false,
      "stateMutability": "nonpayable",
      "type": "function"
    }
  ],
  "bytecode": "0x608060405234801561001057600080fd5b50611f4d806100206000396000f3006080604052600436106100e6576000357c0100000000000000000000000000000000000000000000000000000000900463ffffffff168063376679b0146100f05780633b8bd0131461017057806350e347171461019b578063521eb273146101c65780636bcbf58a1461021d5780637f0dc23814610282578063841ee3f014610299578063962e997214610316578063a41557c61461034c578063a4db47ef146103f9578063ad8073e314610403578063bc852c401461046a578063c4d66de814610481578063db8c13e3146104c4578063ef5001fe14610504578063fbeff1371461051b575b6100ee610548565b005b3480156100fc57600080fd5b5061012e60048036038101908080356fffffffffffffffffffffffffffffffff19169060200190929190505050610553565b604051808273ffffffffffffffffffffffffffffffffffffffff1673ffffffffffffffffffffffffffffffffffffffff16815260200191505060405180910390f35b34801561017c57600080fd5b506101856105b9565b6040518082815260200191505060405180910390f35b3480156101a757600080fd5b506101b06105c6565b6040518082815260200191505060405180910390f35b3480156101d257600080fd5b506101db6105cc565b604051808273ffffffffffffffffffffffffffffffffffffffff1673ffffffffffffffffffffffffffffffffffffffff16815260200191505060405180910390f35b34801561022957600080fd5b5061025e600480360381019080803573ffffffffffffffffffffffffffffffffffffffff1690602001909291905050506105f2565b60405180848152602001838152602001828152602001935050505060405180910390f35b34801561028e57600080fd5b5061029761061c565b005b3480156102a557600080fd5b50610314600480360381019080803573ffffffffffffffffffffffffffffffffffffffff16906020019092919080356fffffffffffffffffffffffffffffffff1916906020019092919080356fffffffffffffffffffffffffffffffff19169060200190929190505050610695565b005b61034a600480360381019080803573ffffffffffffffffffffffffffffffffffffffff169060200190929190505050610bb8565b005b34801561035857600080fd5b5061038a60048036038101908080356fffffffffffffffffffffffffffffffff19169060200190929190505050610eba565b604051808373ffffffffffffffffffffffffffffffffffffffff1673ffffffffffffffffffffffffffffffffffffffff168152602001826fffffffffffffffffffffffffffffffff19166fffffffffffffffffffffffffffffffff191681526020019250505060405180910390f35b610401610548565b005b34801561040f57600080fd5b5061042e60048036038101908080359060200190929190505050610f1b565b60405180826fffffffffffffffffffffffffffffffff19166fffffffffffffffffffffffffffffffff1916815260200191505060405180910390f35b34801561047657600080fd5b5061047f610f61565b005b34801561048d57600080fd5b506104c2600480360381019080803573ffffffffffffffffffffffffffffffffffffffff169060200190929190505050611127565b005b3480156104d057600080fd5b5061050260048036038101908080356fffffffffffffffffffffffffffffffff191690602001909291905050506112a7565b005b34801561051057600080fd5b506105196117e4565b005b34801561052757600080fd5b50610546600480360381019080803590602001909291905050506119d8565b005b61055133610bb8565b565b600060366000836fffffffffffffffffffffffffffffffff19166fffffffffffffffffffffffffffffffff1916815260200190815260200160002060000160009054906101000a900473ffffffffffffffffffffffffffffffffffffffff169050919050565b6000603580549050905090565b60335481565b603460009054906101000a900473ffffffffffffffffffffffffffffffffffffffff1681565b60376020528060005260406000206000915090508060000154908060010154908060020154905083565b600061062733611bf1565b9050603460009054906101000a900473ffffffffffffffffffffffffffffffffffffffff1673ffffffffffffffffffffffffffffffffffffffff166108fc829081150290604051600060405180830381858888f19350505050158015610691573d6000803e3d6000fd5b5050565b6060600080603460009054906101000a900473ffffffffffffffffffffffffffffffffffffffff1673ffffffffffffffffffffffffffffffffffffffff1663a0e67e2b6040518163ffffffff167c0100000000000000000000000000000000000000000000000000000000028152600401600060405180830381600087803b15801561072057600080fd5b505af1158015610734573d6000803e3d6000fd5b505050506040513d6000823e3d601f19601f82011682018060405250602081101561075e57600080fd5b81019080805164010000000081111561077657600080fd5b8281019050602081018481111561078c57600080fd5b81518560208202830111640100000000821117156107a957600080fd5b5050929190505050925060009150600090505b82518160ff16101561082c57828160ff168151811015156107d957fe5b9060200190602002015173ffffffffffffffffffffffffffffffffffffffff163373ffffffffffffffffffffffffffffffffffffffff16141561081f576001915061082c565b80806001019150506107bc565b8115156108a1576040517f08c379a000000000000000000000000000000000000000000000000000000000815260040180806020018281038252600c8152602001807f4e6f7420616e206f776e6572000000000000000000000000000000000000000081525060200191505060405180910390fd5b600073ffffffffffffffffffffffffffffffffffffffff1660366000876fffffffffffffffffffffffffffffffff19166fffffffffffffffffffffffffffffffff1916815260200190815260200160002060000160009054906101000a900473ffffffffffffffffffffffffffffffffffffffff1673ffffffffffffffffffffffffffffffffffffffff161415156109a1576040517f08c379a00000000000000000000000000000000000000000000000000000000081526004018080602001828103825260158152602001807f4d656d62657220616c726561647920657869737473000000000000000000000081525060200191505060405180910390fd5b60408051908101604052808773ffffffffffffffffffffffffffffffffffffffff168152602001856fffffffffffffffffffffffffffffffff191681525060366000876fffffffffffffffffffffffffffffffff19166fffffffffffffffffffffffffffffffff1916815260200190815260200160002060008201518160000160006101000a81548173ffffffffffffffffffffffffffffffffffffffff021916908373ffffffffffffffffffffffffffffffffffffffff16021790555060208201518160010160006101000a8154816fffffffffffffffffffffffffffffffff021916908370010000000000000000000000000000000090040217905550905050603585908060018154018082558091505090600182039060005260206000209060029182820401919006601002909192909190916101000a8154816fffffffffffffffffffffffffffffffff021916908370010000000000000000000000000000000090040217905550508573ffffffffffffffffffffffffffffffffffffffff167fe57f5784e78b1736f101d6f3bc8c6872a5f459f075ec7d57f43eff44b5dcfd38868660405180836fffffffffffffffffffffffffffffffff19166fffffffffffffffffffffffffffffffff19168152602001826fffffffffffffffffffffffffffffffff19166fffffffffffffffffffffffffffffffff191681526020019250505060405180910390a2505050505050565b60335434111515610c31576040517f08c379a00000000000000000000000000000000000000000000000000000000081526004018080602001828103825260188152602001807f4d6573736167652076616c7565206e6f7420656e6f756768000000000000000081525060200191505060405180910390fd5b6000603760008373ffffffffffffffffffffffffffffffffffffffff1673ffffffffffffffffffffffffffffffffffffffff168152602001908152602001600020600201541415610db857606060405190810160405280348152602001603354815260200143815250603760008373ffffffffffffffffffffffffffffffffffffffff1673ffffffffffffffffffffffffffffffffffffffff1681526020019081526020016000206000820151816000015560208201518160010155604082015181600201559050507fed553a58c1e3ebde0827bcbf800a42dd39790c2b44ac7e0cda649b027cebd5f981603460009054906101000a900473ffffffffffffffffffffffffffffffffffffffff16604051808373ffffffffffffffffffffffffffffffffffffffff1673ffffffffffffffffffffffffffffffffffffffff1681526020018273ffffffffffffffffffffffffffffffffffffffff1673ffffffffffffffffffffffffffffffffffffffff1681526020019250505060405180910390a1610eb7565b610e0d34603760008473ffffffffffffffffffffffffffffffffffffffff1673ffffffffffffffffffffffffffffffffffffffff16815260200190815260200160002060000154611e0f90919063ffffffff16565b603760008373ffffffffffffffffffffffffffffffffffffffff1673ffffffffffffffffffffffffffffffffffffffff168152602001908152602001600020600001819055507f7d89b3c7d3be1f4bff77e84ddba0d3f104bf9ea3086a1e71fd7d0a84e4a0eaf481604051808273ffffffffffffffffffffffffffffffffffffffff1673ffffffffffffffffffffffffffffffffffffffff16815260200191505060405180910390a15b50565b60366020528060005260406000206000915090508060000160009054906101000a900473ffffffffffffffffffffffffffffffffffffffff16908060010160009054906101000a900470010000000000000000000000000000000002905082565b603581815481101515610f2a57fe5b9060005260206000209060029182820401919006601002915054906101000a90047001000000000000000000000000000000000281565b60008060009150600090505b6035805490508110156110415761103261102360366000603585815481101515610f9357fe5b90600052602060002090600291828204019190066010029054906101000a9004700100000000000000000000000000000000026fffffffffffffffffffffffffffffffff19166fffffffffffffffffffffffffffffffff1916815260200190815260200160002060000160009054906101000a900473ffffffffffffffffffffffffffffffffffffffff16611bf1565b83611e0f90919063ffffffff16565b91508080600101915050610f6d565b600082141515156110ba576040517f08c379a00000000000000000000000000000000000000000000000000000000081526004018080602001828103825260138152602001807f5472616e736665722076616c756520697320300000000000000000000000000081525060200191505060405180910390fd5b603460009054906101000a900473ffffffffffffffffffffffffffffffffffffffff1673ffffffffffffffffffffffffffffffffffffffff166108fc839081150290604051600060405180830381858888f19350505050158015611122573d6000803e3d6000fd5b505050565b60008060019054906101000a900460ff16806111475750611146611e30565b5b8061115e57506000809054906101000a900460ff16155b15156111f8576040517f08c379a000000000000000000000000000000000000000000000000000000000815260040180806020018281038252602e8152602001807f436f6e747261637420696e7374616e63652068617320616c726561647920626581526020017f656e20696e697469616c697a656400000000000000000000000000000000000081525060400191505060405180910390fd5b600060019054906101000a900460ff1690506001600060016101000a81548160ff02191690831515021790555060016000806101000a81548160ff02191690831515021790555061271060338190555081603460006101000a81548173ffffffffffffffffffffffffffffffffffffffff021916908373ffffffffffffffffffffffffffffffffffffffff16021790555080600060016101000a81548160ff0219169083151502179055505050565b60006060600080603460009054906101000a900473ffffffffffffffffffffffffffffffffffffffff1673ffffffffffffffffffffffffffffffffffffffff1663a0e67e2b6040518163ffffffff167c0100000000000000000000000000000000000000000000000000000000028152600401600060405180830381600087803b15801561133457600080fd5b505af1158015611348573d6000803e3d6000fd5b505050506040513d6000823e3d601f19601f82011682018060405250602081101561137257600080fd5b81019080805164010000000081111561138a57600080fd5b828101905060208101848111156113a057600080fd5b81518560208202830111640100000000821117156113bd57600080fd5b5050929190505050925060009150600090505b82518160ff16101561144057828160ff168151811015156113ed57fe5b9060200190602002015173ffffffffffffffffffffffffffffffffffffffff163373ffffffffffffffffffffffffffffffffffffffff1614156114335760019150611440565b80806001019150506113d0565b8115156114b5576040517f08c379a000000000000000000000000000000000000000000000000000000000815260040180806020018281038252600c8152602001807f4e6f7420616e206f776e6572000000000000000000000000000000000000000081525060200191505060405180910390fd5b60366000866fffffffffffffffffffffffffffffffff19166fffffffffffffffffffffffffffffffff1916815260200190815260200160002060000160009054906101000a900473ffffffffffffffffffffffffffffffffffffffff1673ffffffffffffffffffffffffffffffffffffffff167f3fa707f0a1b643f48caf25a10ef749f570de0f6ad6645179168ba127eebb0dd78660366000896fffffffffffffffffffffffffffffffff19166fffffffffffffffffffffffffffffffff1916815260200190815260200160002060010160009054906101000a90047001000000000000000000000000000000000260405180836fffffffffffffffffffffffffffffffff19166fffffffffffffffffffffffffffffffff19168152602001826fffffffffffffffffffffffffffffffff19166fffffffffffffffffffffffffffffffff191681526020019250505060405180910390a260366000866fffffffffffffffffffffffffffffffff19166fffffffffffffffffffffffffffffffff19168152602001908152602001600020600080820160006101000a81549073ffffffffffffffffffffffffffffffffffffffff02191690556001820160006101000a8154906fffffffffffffffffffffffffffffffff02191690555050600093505b6035805490508410156117dd576035848154811015156116b357fe5b90600052602060002090600291828204019190066010029054906101000a9004700100000000000000000000000000000000026fffffffffffffffffffffffffffffffff1916856fffffffffffffffffffffffffffffffff191614156117d057603560016035805490500381548110151561172a57fe5b90600052602060002090600291828204019190066010029054906101000a90047001000000000000000000000000000000000260358581548110151561176c57fe5b90600052602060002090600291828204019190066010026101000a8154816fffffffffffffffffffffffffffffffff02191690837001000000000000000000000000000000009004021790555060358054809190600190036117ce9190611ea0565b505b8380600101945050611697565b5050505050565b60006117ee61061c565b603760003373ffffffffffffffffffffffffffffffffffffffff1673ffffffffffffffffffffffffffffffffffffffff1681526020019081526020016000206000015490506000811115156118d1576040517f08c379a00000000000000000000000000000000000000000000000000000000081526004018080602001828103825260308152602001807f416d6f756e7420746f207061796f7574206973206e6f206d6f7265207468616e81526020017f207a65726f2c20726576657274696e670000000000000000000000000000000081525060400191505060405180910390fd5b603760003373ffffffffffffffffffffffffffffffffffffffff1673ffffffffffffffffffffffffffffffffffffffff1681526020019081526020016000206000808201600090556001820160009055600282016000905550503373ffffffffffffffffffffffffffffffffffffffff166108fc829081150290604051600060405180830381858888f19350505050158015611971573d6000803e3d6000fd5b507f7d89b3c7d3be1f4bff77e84ddba0d3f104bf9ea3086a1e71fd7d0a84e4a0eaf433604051808273ffffffffffffffffffffffffffffffffffffffff1673ffffffffffffffffffffffffffffffffffffffff16815260200191505060405180910390a150565b6060600080603460009054906101000a900473ffffffffffffffffffffffffffffffffffffffff1673ffffffffffffffffffffffffffffffffffffffff1663a0e67e2b6040518163ffffffff167c0100000000000000000000000000000000000000000000000000000000028152600401600060405180830381600087803b158015611a6357600080fd5b505af1158015611a77573d6000803e3d6000fd5b505050506040513d6000823e3d601f19601f820116820180604052506020811015611aa157600080fd5b810190808051640100000000811115611ab957600080fd5b82810190506020810184811115611acf57600080fd5b8151856020820283011164010000000082111715611aec57600080fd5b5050929190505050925060009150600090505b82518160ff161015611b6f57828160ff16815181101515611b1c57fe5b9060200190602002015173ffffffffffffffffffffffffffffffffffffffff163373ffffffffffffffffffffffffffffffffffffffff161415611b625760019150611b6f565b8080600101915050611aff565b811515611be4576040517f08c379a000000000000000000000000000000000000000000000000000000000815260040180806020018281038252600c8152602001807f4e6f7420616e206f776e6572000000000000000000000000000000000000000081525060200191505060405180910390fd5b8360338190555050505050565b600080611bfc611eda565b6000603760008673ffffffffffffffffffffffffffffffffffffffff1673ffffffffffffffffffffffffffffffffffffffff1681526020019081526020016000206060604051908101604052908160008201548152602001600182015481526020016002820154815250509150611c968260200151611c88846040015143611e4190919063ffffffff16565b611e6290919063ffffffff16565b9050816000015181111515611d0a57611cbc818360000151611e4190919063ffffffff16565b603760008773ffffffffffffffffffffffffffffffffffffffff1673ffffffffffffffffffffffffffffffffffffffff16815260200190815260200160002060000181905550809250611d5a565b816000015192506000603760008773ffffffffffffffffffffffffffffffffffffffff1673ffffffffffffffffffffffffffffffffffffffff168152602001908152602001600020600001819055505b43603760008773ffffffffffffffffffffffffffffffffffffffff1673ffffffffffffffffffffffffffffffffffffffff168152602001908152602001600020600201819055507f7d89b3c7d3be1f4bff77e84ddba0d3f104bf9ea3086a1e71fd7d0a84e4a0eaf485604051808273ffffffffffffffffffffffffffffffffffffffff1673ffffffffffffffffffffffffffffffffffffffff16815260200191505060405180910390a1829350505050919050565b6000808284019050838110151515611e2657600080fd5b8091505092915050565b600080303b90506000811491505090565b600080838311151515611e5357600080fd5b82840390508091505092915050565b6000806000841415611e775760009150611e99565b8284029050828482811515611e8857fe5b04141515611e9557600080fd5b8091505b5092915050565b815481835581811115611ed5576001016002900481600101600290048360005260206000209182019101611ed49190611efc565b5b505050565b6060604051908101604052806000815260200160008152602001600081525090565b611f1e91905b80821115611f1a576000816000905550600101611f02565b5090565b905600a165627a7a7230582000cf76947847df88cba4822ee7daac103c9872cc83b40969550dadbf3d91e30a0029",
  "source": "pragma solidity ^0.4.24;\n\nimport \"openzeppelin-eth/contracts/math/SafeMath.sol\";\nimport \"zos-lib/contracts/Initializable.sol\";\n\nimport \"./MultiSigWallet.sol\";\n\ncontract Althea is Initializable {\n  using SafeMath for uint;\n\n  event NewMember(\n    address indexed ethAddress,\n    bytes16 ipAddress,\n    bytes16 nickname\n  );\n  event MemberRemoved(\n    address indexed ethAddress,\n    bytes16 ipAddress,\n    bytes16 nickname\n  );\n\n  event NewBill(address payer, address collector);\n  event BillUpdated(address payer);\n\n  modifier onlyOwners() {\n    address[] memory owners = wallet.getOwners();\n    bool owner = false;\n    for(uint8 i = 0; i< owners.length; i++) {\n      if (msg.sender == owners[i]) {\n        owner = true;\n        break;\n      }\n    }\n    require(owner, \"Not an owner\");\n    _;\n  }\n\n  struct Bill {\n    uint balance;\n    uint perBlock;\n    uint lastUpdated;\n  }\n\n  struct User {\n    address ethAddr;\n    bytes16 nick;\n  }\n\n  uint public perBlockFee;\n  MultiSigWallet public wallet;\n  bytes16[] public subnetSubscribers;\n  mapping(bytes16 => User) public userMapping;\n  mapping(address => Bill) public billMapping;\n\n  function initialize(MultiSigWallet _wallet) external initializer {\n    perBlockFee = 10000;\n    wallet = _wallet;\n  }\n\n  function getMember(bytes16 _ip) external view returns(address addr) {\n    addr = userMapping[_ip].ethAddr;\n  }\n\n  function setPerBlockFee(uint _newFee) external onlyOwners {\n    perBlockFee = _newFee;\n  }\n\n  function getCountOfSubscribers() external view returns (uint) {\n    return subnetSubscribers.length;\n  }\n\n  function addBill() public payable {\n    addBill(msg.sender);\n  }\n\n  function addBill(address _subscriber) public payable {\n    require(msg.value > perBlockFee, \"Message value not enough\");\n\n    if (billMapping[_subscriber].lastUpdated == 0) {\n      billMapping[_subscriber] = Bill(msg.value, perBlockFee, block.number);\n      emit NewBill(_subscriber, wallet);\n    } else {\n      billMapping[_subscriber].balance = billMapping[_subscriber].balance.add(msg.value);\n      emit BillUpdated(_subscriber);\n    }\n  }\n\n  function addMember(address _ethAddr, bytes16 _ip, bytes16 _nick)\n    external \n    onlyOwners\n  {\n    require(userMapping[_ip].ethAddr== address(0), \"Member already exists\");\n    userMapping[_ip] = User(_ethAddr, _nick);\n    subnetSubscribers.push(_ip);\n    NewMember(_ethAddr, _ip, _nick);\n  }\n\n  function collectBills() external {\n    uint transferValue = 0;\n    for (uint i = 0; i < subnetSubscribers.length; i++) {\n      transferValue = transferValue.add(\n        processBills(\n          userMapping[subnetSubscribers[i]].ethAddr\n        )\n      );\n    }\n    require(transferValue != 0, \"Transfer value is 0\");\n    address(wallet).transfer(transferValue);\n  }\n\n  function payMyBills() public {\n    uint amount = processBills(msg.sender);\n    address(wallet).transfer(amount);\n  }\n\n  function deleteMember(bytes16 _ip) external onlyOwners {\n    MemberRemoved(userMapping[_ip].ethAddr, _ip, userMapping[_ip].nick);\n    delete userMapping[_ip];\n    for (uint i = 0; i < subnetSubscribers.length; i++) {\n      if (_ip == subnetSubscribers[i]) {\n        subnetSubscribers[i] = subnetSubscribers[subnetSubscribers.length-1];\n        subnetSubscribers.length--;\n      }\n    }\n  }\n\n  function withdrawFromBill() external {\n    payMyBills();\n    uint amount = billMapping[msg.sender].balance;\n    require(amount > 0, \"Amount to payout is no more than zero, reverting\");\n    delete billMapping[msg.sender];\n    address(msg.sender).transfer(amount);\n    emit BillUpdated(msg.sender);\n  }\n\n  function processBills(address _subscriber) internal returns(uint) {\n    uint transferValue;\n    Bill memory bill = billMapping[_subscriber];\n    uint amountOwed = block.number.sub(bill.lastUpdated).mul(bill.perBlock);\n\n    if (amountOwed <= bill.balance) {\n      billMapping[_subscriber].balance= bill.balance.sub(amountOwed);\n      transferValue = amountOwed;\n    } else {\n      transferValue = bill.balance;\n      billMapping[_subscriber].balance = 0;\n    }\n    billMapping[_subscriber].lastUpdated = block.number;\n    emit BillUpdated(_subscriber);\n    return transferValue;\n  }\n\n  // leave a space between `function` and `(` or else the parser won't work\n  function () external payable {\n    addBill();\n  }\n}\n",
  "sourcePath": "/home/sebas/githubs/althea/gnosis/ssDAO/contracts/Althea.sol",
  "compiler": {
    "name": "solc",
    "version": "0.4.24+commit.e67f0147.Linux.g++"
  },
  "schemaVersion": "3.0.1",
  "updatedAt": "2019-01-21T13:55:34.920Z",
  "devdoc": {
    "methods": {}
  },
  "userdoc": {
    "methods": {}
  }
}